:100000000C9462000C948A000C948A000C948A0070
:100010000C948A000C948A000C948A000C948A0038
:100020000C948A000C948A000C948A000C948A0028
:100030000C948A000C948A000C948A000C948A0018
:100040000C943E030C948A000C94AE030C94880329
:100050000C948A000C948A000C948A000C948A00F8
:100060000C94E0030C948A0000000000230026009A
:10007000290000000008000201000003040700003E
:1000800000000000000000000000250028002B00F8
:1000900000000000240027002A00040404040404D3
:1000A0000404020202020202030303030303010227
:1000B00004081020408001020408102001020408F6
:1000C0001020FF0411241FBECFEFD8E0DEBFCDBF4C
:1000D00011E0A0E0B1E0EAE8F1E102C005900D9284
:1000E000AC32B107D9F722E0ACE2B1E001C01D9219
:1000F000A53AB207E1F710E0C2E6D0E004C02197CC
:10010000FE010E949807C136D107C9F70E94A105D8
:100110000C94C3080C940000833081F028F48130E3
:1001200099F08230A9F008958730A9F08830C9F09D
:100130008430B1F4809180008F7D03C08091800075
:100140008F7780938000089584B58F7784BD08955C
:1001500084B58F7DFBCF8091B0008F778093B00006
:1001600008958091B0008F7DF9CF1F93CF93DF93D7
:10017000282F30E0F901EE58FF4F8491F901E25544
:10018000FF4FD491F901E656FF4FC491CC23A9F05B
:10019000162F81110E948C00EC2FF0E0EE0FFF1F54
:1001A000EA57FF4FA591B4918FB7F894EC911111D4
:1001B00008C0D095DE23DC938FBFDF91CF911F91D4
:1001C0000895DE2BF8CF3FB7F8948091EC01909121
:1001D000ED01A091EE01B091EF0126B5A89B05C0FD
:1001E0002F3F19F00196A11DB11D3FBFBA2FA92FB6
:1001F000982F8827BC01CD01620F711D811D911DB3
:1002000042E0660F771F881F991F4A95D1F708951E
:10021000AF92BF92CF92DF92EF92FF920F931F9314
:10022000CF93DF936C017B018B01040F151FEB0152
:100230005E01AE18BF08C017D10759F06991D60109
:10024000ED91FC910190F081E02DC6010995892B7B
:1002500079F7C501DF91CF911F910F91FF90EF903A
:10026000DF90CF90BF90AF90089508950895FC015E
:10027000538D448D252F30E0842F90E0821B930B0B
:10028000541710F0CF96089501970895FC01918DB1
:10029000828D981761F0A28DAE0FBF2FB11D5D96B4
:1002A0008C91928D9F5F9F73928F90E008958FEF56
:1002B0009FEF0895FC01918D828D981731F0828D0A
:1002C000E80FF11D858D90E008958FEF9FEF089561
:1002D000FC01918D228D892F90E0805C9F4F821BC5
:1002E00091098F739927089580EF91E00E9468012A
:1002F00021E0892B09F420E0822F089580E090E02E
:10030000892B29F00E94740181110C94000008953A
:10031000FC01A48DA80FB92FB11DA35ABF4F2C917A
:10032000848D90E001968F739927848FA689B78971
:100330002C93A089B1898C91837080648C93938D68
:10034000848D981306C00288F389E02D80818F7D0B
:1003500080830895EF92FF920F931F93CF93DF93C3
:10036000EC0181E0888F9B8D8C8D98131AC0E889F1
:10037000F989808185FF15C09FB7F894EE89FF89C0
:100380006083E889F98980818370806480839FBF5E
:1003900081E090E0DF91CF911F910F91FF90EF905E
:1003A0000895F62E0B8D10E00F5F1F4F0F7311276E
:1003B000E02E8C8D8E110CC00FB607FCFACFE889A9
:1003C000F989808185FFF5CFCE010E948801F1CFA8
:1003D000EB8DEC0FFD2FF11DE35AFF4FF0829FB71D
:1003E000F8940B8FEA89FB8980818062CFCFCF930D
:1003F000DF93EC01888D8823B9F0AA89BB89E8894D
:10040000F9898C9185FD03C0808186FD0DC00FB6F2
:1004100007FCF7CF8C9185FFF2CF808185FFEDCF70
:10042000CE010E948801E9CFDF91CF9108952091FC
:100430006D01260F3327331F21323105ECF4209153
:10044000BC01FC0190E080E0243069F082E0089576
:10045000A0916D012191AC01435B5E4FA40FB52FBC
:10046000B11D2C930196861798F380916D01680F4A
:1004700060936D0180E0089581E008951092BC01C1
:1004800081E08093BB011092960161E082E10E94BD
:10049000B50061E083E10E94B500E9EBF0E0808106
:1004A0008E7F808380818D7F808388E48093B800F5
:1004B00085E48093BC000895CF93DF9391E09093FF
:1004C0004C018823B9F0C091B800D091BA00809156
:1004D000BC008A7B8093BC0060E082E10E94B50092
:1004E00060E083E10E94B5000E943E02D093BA0012
:1004F000C093B800DF91CF9108950895E0919501E0
:1005000080919401E81730F4F0E0E45DFE4F8081C3
:1005100090E008958FEF9FEF08959091950180915D
:1005200094012FEF3FEF981748F4E92FF0E0E45DD6
:10053000FE4F208130E09F5F90939501C90108959F
:100540008091940190919501891B990B0895CF9208
:10055000DF92EF92FF920F931F93CF93DF937C0173
:10056000CB018A012091C201222389F0EB016B01AA
:10057000C40ED51ECC15DD0569F06991D701ED914A
:10058000FC910190F081E02DC7010995F3CF642F14
:100590000E941702C801DF91CF911F910F91FF9028
:1005A000EF90DF90CF900895CF93DF931F92CDB758
:1005B000DEB769832091C2012223F9F02091E50181
:1005C000203258F021E030E0FC013383228390E0B8
:1005D00080E00F90DF91CF9108958091C301E82FC3
:1005E000F0E0EC53FE4F998190838F5F8093C301BD
:1005F0008093E50181E090E0ECCF61E0CE010196CF
:100600000E941702F7CF90E080E0089585ED809377
:10061000BC008091BE019091BF01A091C001B0913A
:10062000C1010796A11DB11D23E0B695A795979529
:1006300087952A95D1F72091BC0024FD03C0109224
:10064000BC0108954091BE015091BF016091C0016D
:100650007091C101452B462B472B69F30097A105EB
:10066000B10541F025E32A95F1F700000197A109B2
:10067000B109E1CF8091BD010C945C021F920F92F1
:100680000FB60F9211242F933F938F939F93AF93A5
:10069000BF938091E8019091E901A091EA01B091A6
:1006A000EB013091E70123E0230F2D3758F5019638
:1006B000A11DB11D2093E7018093E8019093E9010A
:1006C000A093EA01B093EB018091EC019091ED01D0
:1006D000A091EE01B091EF010196A11DB11D809393
:1006E000EC019093ED01A093EE01B093EF01BF9167
:1006F000AF919F918F913F912F910F900FBE0F90CF
:100700001F90189526E8230F0296A11DB11DD2CF88
:100710001F920F920FB60F9211242F933F934F9376
:100720005F936F937F938F939F93AF93BF93EF9359
:10073000FF9380EF91E00E948801FF91EF91BF91BC
:10074000AF919F918F917F916F915F914F913F9169
:100750002F910F900FBE0F901F9018951F920F9220
:100760000FB60F9211242F938F939F93EF93FF93C4
:10077000E0910002F09101028081E0910602F09187
:10078000070282FD1BC09081809109028F5F8F73E9
:1007900020910A02821741F0E0910902F0E0E05155
:1007A000FE4F958F80930902FF91EF919F918F915A
:1007B0002F910F900FBE0F901F9018958081F4CF4E
:1007C0001F920F920FB60F9211242F933F934F93C6
:1007D0005F936F937F938F939F93AF93BF93EF93A9
:1007E000FF938091B900887F803609F44AC0F0F504
:1007F000883209F4A7C018F5803109F49BC0B8F419
:10080000882309F4F9C0883009F494C0FF91EF916E
:10081000BF91AF919F918F917F916F915F914F9118
:100820003F912F910F900FBE0F901F901895883118
:1008300009F488C0803251F78093BA0114C0803423
:1008400009F49DC040F48033B9F38833F9F68093FE
:10085000BA0185ECB0C0803509F485C0883509F44B
:1008600096C0883499F60E940603D0CF883909F4DF
:100870008CC038F5883729F050F4883611F080376D
:1008800029F683E08093BC0110928F0157C088380D
:1008900009F47BC0803919F0803809F0B7CF809116
:1008A0008F01803208F071C0E0918F0181E08E0FDE
:1008B00080938F018091BB00F0E0E159FE4F80836F
:1008C0003DC0803B39F0E0F4803A09F479C0883AC1
:1008D00009F09CCF84E08093BC0110926E011092CD
:1008E0006D01E0919201F0919301099580916D0164
:1008F00081110FC081E080936D0110924D0109C0FC
:10090000803C09F4A6CF883C09F4A3CF883B09F0CA
:100910007DCFE0916E0181E08E0F80936E01F0E05B
:10092000E35BFE4F80818093BB0090916E018091CC
:100930006D0129C0809197018093BB0085EC809365
:10094000BC0064CF9091B9018091B801981758F517
:10095000E091B90181E08E0F8093B901F0E0E85693
:10096000FE4F8081E9CFE091B90181E08E0F809345
:10097000B9018091BB00F0E0E856FE4F8083909172
:10098000B9018091B8019817C8F285E8D8CFE091F5
:10099000B90181E08E0F8093B9018091BB00F0E036
:1009A000E856FE4F80838091BB0181115CCF81E0CE
:1009B0008093960184EA8093BC001092BC0126CFFC
:1009C00085EC8093BC001092BC0180918F01803235
:1009D00030F4E0918F01F0E0E159FE4F1082609118
:1009E0008F0170E0E0919001F09191018FE691E02C
:1009F000099510928F010ACF1092BA0134CFCF938C
:100A0000DF931092F3011092F20188EE93E0A0E0E0
:100A1000B0E08093F4019093F501A093F601B093B8
:100A2000F7012AE031E03093F1012093F00125EC49
:100A300030E03093FD012093FC0124EC30E0309352
:100A4000FF012093FE0120EC30E03093010220935F
:100A5000000221EC30E0309303022093020222ECEA
:100A600030E0309305022093040226EC30E030930E
:100A70000702209306021092090210920A021092B5
:100A80000B0210920C021092900210928F0280932F
:100A9000910290939202A0939302B09394028CE1FE
:100AA00091E090938E0280938D0284E090E00E940A
:100AB0009E0790939A0280939902AAE2B1E030E0F7
:100AC00020E08D91E0919902F0919A02E20FF31FDC
:100AD00090E091838083FD013197808190E0FC015B
:100AE000E255FF4F449186569F4FFC018491882325
:100AF000C9F090E0880F991FFC01E057FF4FC591A6
:100B0000D491FC01EA57FF4F659174919FB7F89417
:100B10005881842F809585238883EB01E8814E2BB3
:100B200048839FBF2E5F3F4F2430310509F0C9CF66
:100B300082E090E090939C0280939B02DF91CF91A2
:100B40000895789484B5826084BD84B5816084BD45
:100B500085B5826085BD85B5816085BD80916E005B
:100B6000816080936E00109281008091810082608C
:100B700080938100809181008160809381008091C9
:100B800080008160809380008091B10084608093B8
:100B9000B1008091B00081608093B00080917A00B4
:100BA000846080937A0080917A00826080937A00DA
:100BB00080917A00816080937A0080917A008068C9
:100BC00080937A001092C1001092950110929401C6
:100BD0001092C3011092E5010E943E0285E391E06C
:100BE000909393018093920186E391E09093910119
:100BF00080939001E0910002F091010282E08083F5
:100C0000E091FC01F091FD011082E091FE01F09174
:100C1000FF018FEC808310920802E0910402F091B2
:100C2000050286E08083E0910202F0910302808158
:100C300080618083E0910202F091030280818860EC
:100C40008083E0910202F0910302808180688083BA
:100C5000E0910202F091030280818F7D8083EBEBB3
:100C6000F0E02491E7EAF0E08491882399F090E0A5
:100C7000880F991FFC01E057FF4FA591B491FC012B
:100C8000EA57FF4F859194918FB7F894EC91E22B3E
:100C9000EC938FBFEE24E394F12C55EE852E65EC9A
:100CA000962E70E0C72E70E0D72EE2E0AE2EDFEF7A
:100CB000C1E030E5B32E80919F0281114DC010E05C
:100CC00000E080919B0290919C02081719070CF09C
:100CD00041C0E0919902F0919A02C801880F991FD2
:100CE000E80FF91F208131813327F901EE58FF4FBA
:100CF0008491F901E255FF4F7490F901E656FF4FD8
:100D000064906620C9F081110E948C00E62DF0E00D
:100D1000EE0FFF1FE859FF4FA591B491EC91209180
:100D20009D02C701002E01C0880F0A94EAF77E22B7
:100D300080958223711009C080919D029701002E39
:100D400001C0220F0A94EAF7822B80939D020F5F65
:100D50001F4FB7CFC0939F0280919D0281708093F7
:100D6000E60104E610E0C093C201B092E4011092E3
:100D7000C3011092E5016091E6018DE892E00E94C6
:100D8000D4023090E50180E2831508F48CC00E9403
:100D9000E3002B013C018091BC0181115FC0A09256
:100DA000BC01C093BB01D093BA011092B90130923B
:100DB000B801E4ECF1E0A8E9B1E0381290C010927B
:100DC000970180919701806A8093970180919601A5
:100DD000813009F088C0109296010E94E3002B0137
:100DE0003C01809197018093BB008091BE0190915E
:100DF000BF01A091C001B091C101892B8A2B8B2B1F
:100E000099F00E94E3002091BE013091BF01409112
:100E1000C0015091C1016419750986099709261707
:100E2000370748075907D8F18091BC0083FDD9CF17
:100E30009092BC000E94E3002B013C018091BC0118
:100E4000823009F453C08091BA018F3F61F18091E3
:100E5000BA01803241F18091BA0125C08091BE0172
:100E60009091BF01A091C001B091C101892B8A2B43
:100E70008B2B09F490CF0E94E3002091BE013091AA
:100E8000BF014091C0015091C101641975098609E3
:100E90009709261737074807590708F07CCF809134
:100EA000BD010E945C021092C3011092E5011092F4
:100EB000C2010150110909F056CF80919D02809323
:100EC0009E0210929F02C114D10409F4F4CE0E9434
:100ED0007401882309F4ECCE0E940000E9CE9191C0
:100EE0009D938F5F6ACF8092BC00A4CF8091BE019A
:100EF0009091BF01A091C001B091C101892B8A2BB3
:100F00008B2B09F49BCF0E94E3002091BE0130910E
:100F1000BF014091C0015091C10164197509860952
:100F20009709261737074807590708F087CFB7CF23
:100F3000EE0FFF1F0590F491E02D09940F931F937E
:100F4000CF93DF938230910510F482E090E0E0913E
:100F5000A302F091A40230E020E0B0E0A0E03097DE
:100F600099F42115310509F44AC0281B390B2430A6
:100F70003105D8F58A819B816115710589F1FB01E5
:100F800093838283FE0111C04081518102811381CC
:100F900048175907E0F04817590799F4109761F07E
:100FA00012960C93129713961C933296CF01DF91F1
:100FB000CF911F910F9108950093A3021093A40263
:100FC000F4CF2115310551F04217530738F0A9012C
:100FD000DB019A01BD01DF01F801C1CFEF01F9CFBB
:100FE0009093A4028093A302CDCFFE01E20FF31FE2
:100FF000819391932250310939832883D7CF20914F
:10100000A1023091A202232B41F4209102013091E0
:1010100003013093A2022093A1022091000130919C
:1010200001012115310541F42DB73EB7409104016E
:1010300050910501241B350BE091A102F091A20211
:10104000E217F307A0F42E1B3F0B2817390778F09F
:10105000AC014E5F5F4F2417350748F04E0F5F1FFE
:101060005093A2024093A102819391939FCFF0E00D
:10107000E0E09CCFCF93DF930097E9F0FC0132973B
:1010800013821282A091A302B091A402ED0130E07C
:1010900020E01097A1F420813181820F931F2091CD
:1010A000A1023091A2022817390709F061C0F0931C
:1010B000A202E093A102DF91CF910895EA01CE1739
:1010C000DF07E8F54A815B819E0141155105B1F7C3
:1010D000E901FB83EA8349915991C40FD51FEC17AD
:1010E000FD0761F4808191810296840F951FE901CB
:1010F00099838883828193819B838A83F0E0E0E0F7
:1011000012968D919C9113970097B9F52D913C9172
:101110001197CD010296820F931F2091A102309169
:10112000A2022817390739F6309751F51092A40218
:101130001092A302B093A202A093A102BCCFD383CA
:10114000C28340815181840F951FC817D90761F46C
:101150004E5F5F4F88819981480F591F51834083AB
:101160008A819B81938382832115310509F0B0CF59
:10117000F093A402E093A3029ECFFD01DC01C0CF57
:0A11800013821282D7CFF894FFCF3C
:10118A000000A502800000000000AA010801370142
:10119A00F701680146015A0100000000D402A702C3
:0C11AA0003037D02A0028D027E020203FE
:00000001FF
